:0700FF0012008F8FB080F9A1
:0E00F0000C083132333435363738392A302394
:0F00E100D294D295D296D290D291D292D293222B
:10008F00E4FF1200E1C290209402AF08209502AF66
:10009F0009209602AF0AD290C291209402AF0B2092
:1000AF009502AF0C209602AF0DD291C2922094020E
:1000BF00AF0E209502AF0F209602AF10D292C293CF
:1000CF00209402AF11209502AF12209602AF13D2E7
:0100DF00938D
:0100E00022FD
:03000000020003F8
:0C000300787FE4F6D8FD75811302004AF6
:10000F000200FFE493A3F8E493A34003F68001F208
:10001F0008DFF48029E493A3F85407240CC8C333F2
:10002F00C4540F4420C8834004F456800146F6DFC1
:10003F00E4800B01020408102040809000F0E47E61
:10004F00019360BCA3FF543F30E509541FFEE493B6
:10005F00A360010ECF54C025E060A840B8E493A37D
:10006F00FAE493A3F8E493A3C8C582C8CAC583CAA8
:10007F00F0A3C8C582C8CAC583CADFE9DEE780BE60
:0100FE000001
:00000001FF
