:100214004B455920505245535345443A0050484F9A
:100224004E45204E554D4245523A0043414C4C49AF
:100234004E472E2E2E00484F4C44202320544F204E
:0702440043414E43454C000D
:100003001202A07BFF7A027914807D1201C28F1441
:10001300EF3395E04F60F47F1E7E001202C712019A
:10002300C28F15E514B515E36423706DAF14120385
:10003300337FC87E001202C71201C28F15E514B5C3
:1000430015C97F2C7E011202C71201C28F15E51458
:10005300B515B87F2C7E011202C71201C28F15E5B8
:1000630014B515A77F2C7E011202C71201C28F158A
:10007300E514651570957F011202E77FF47E011286
:1000830002C77BFF7A0279217D02E4FF120321E498
:10009300FD7F0112030602000EE514642A600302C9
:1000A3000127AF141203337FC87E001202C7120167
:1000B300C28F15E5146515600302000E7F2C7E01C7
:1000C3001202C71201C28F15E51465156003020001
:1000D3000E7F2C7E011202C71201C28F15E5146533
:1000E30015600302000E7F2C7E011202C71201C2AB
:1000F3008F15E5146515600302000E7F011202E7F8
:100103007BFF7A02792F7D03E4FF1203217FE87ED0
:10011300031202C77BFF7A02793AE4FD7F011203DF
:100123002102000EAF141203337FC87E001202C7F0
:0301330002000EB9
:1002C700E4FDFCC3ED9FEC9E5015E4FBFA0BBB006D
:0F02D700010AEB647B4A70F50DBD00010C80E459
:0102E60022F5
:1002E700C2A08FB0C2A1D2A1EFFD64016005ED6489
:0F02F7000270047F0280027F017E001202C72284
:10030600EFFB7A007005ED4480F519EB64014A7045
:0B03160005ED44C0F519AF190202E725
:0F033300D2A08FB0C2A1D2A17F017E000202C76B
:0A0360008B1D120306AF1D020333CC
:060278008B198A1A891B94
:10027E00E4F51CAB19AA1AA91B851C827583001202
:10028E00024BFFFD3395E04D6007120333051C80D2
:01029E00E27D
:01029F00223C
:100321008B168A178918120306AB16AA17A9180289
:02033100027850
:1002A0007F381202E77F057E001202C77F381202F4
:1002B000E77F017E001202C77F381202E77F381203
:0702C00002E77F0C0202E7D8
:0E0351000C083132333435363738392A302330
:0F034200D294D295D296D290D291D292D29322C7
:1001C200E4FF120342C290209402AF08209502AFCE
:1001D20009209602AF0AD290C291209402AF0B205E
:1001E2009502AF0C209602AF0DD291C292209402DA
:1001F200AF0E209502AF0F209602AF10D292C2939B
:10020200209402AF11209502AF12209602AF13D2B2
:010212009358
:0102130022C8
:03000000020136C4
:0C013600787FE4F6D8FD75811D02017D84
:10024B00BB010CE58229F582E5833AF583E0225068
:10025B0006E92582F8E622BBFE06E92582F8E222B2
:0D026B00E58229F582E5833AF583E49322CC
:10014200020003E493A3F8E493A34003F68001F2D0
:1001520008DFF48029E493A3F85407240CC8C333BE
:10016200C4540F4420C8834004F456800146F6DF8D
:10017200E4800B0102040810204080900351E47EC9
:10018200019360BCA3FF543F30E509541FFEE49382
:10019200A360010ECF54C025E060A840B8E493A349
:1001A200FAE493A3F8E493A3C8C582C8CAC583CA74
:1001B200F0A3C8C582C8CAC583CADFE9DEE780BE2C
:01035F00009D
:00000001FF
