:100161004E75742030004E75742031004E75742028
:0201710032005A
:10014F00D28AD2AAD2AF7F607E0912008243870182
:02015F0080FB23
:03001300020016D2
:10001600C0E0C0F0C083C082C0D075D000C000C0B0
:1000260001C002C003C004C005C006C0077F147E1D
:100036000012012F20900C7BFF7A01796112010AD0
:100046003090FD20910C7BFF7A01796712010A300E
:1000560091FD20920C7BFF7A01796D12010A309294
:10006600FDD007D006D005D004D003D002D001D0F1
:0C00760000D0D0D082D083D0F0D0E03297
:10008200C29FD29E53890F438920BE250BBF800891
:10009200758DF94387808017BE0908BF6005758D8D
:1000A200F38009BE0409BFB006758DE653877FD27F
:0600B2008ED299D29C22BF
:1000E500BE250ABF8007758DF943878022BE0908A2
:1000F500BF6005758DF38009BE0409BFB006758D17
:05010500E653877F2294
:080173003099FDC2998F992219
:06010A008B088A09890A36
:10011000E4FEAB08AA09A90A8E827583001200B812
:0E012000FFFD3395E04D60061201730E80E482
:01012E0022AE
:06017B00A298E433FF220C
:05018100C298AF9922B5
:10012F00E4FDFCC3ED9FEC9E5015E4FBFA0BBB0006
:0F013F00010AEB647B4A70F50DBD00010C80E4F2
:01014E00228E
:03000000020003F8
:0C000300787FE4F6D8FD75810A02014FF9
:1000B800BB010CE58229F582E5833AF583E02250FD
:1000C80006E92582F8E622BBFE06E92582F8E22247
:0D00D800E58229F582E5833AF583E4932261
:00000001FF
