:10015D00D28AD2AAD2AF7F007E4B1200764387019E
:02016D0080FB15
:03001300020016D2
:10001600C0E0C0F0C083C082C0D075D000C000C0B0
:1000260001C002C003C004C005C006C0077F147E1D
:100036000012013D2090087F7012016F3090FD2064
:1000460091087F7112016F3091FD2092087F721224
:10005600016F3092FDD007D006D005D004D003D072
:1000660002D001D000D0D0D082D083D0F0D0E03200
:10007600C29FD29E53890F438920BE2508BF8005A3
:10008600758DFD8014BE0908BF6005758DF4800965
:10009600BE040BBFB008758DE853877F800EE4B5AC
:1000A600070AEEB44B06758DFD438780D28ED29932
:0300B600D29C22B7
:1000B900BE2508BF8005758DFD8014BE0908BF6087
:1000C90005758DF48009BE040ABFB007758DE85324
:1000D900877F22E4B5070AEEB44B06758DFD438789
:0200E900802273
:08016F003099FDC2998F99221D
:060118008B088A09890A28
:10011E00E4FEAB08AA09A90A8E827583001200EBD1
:0E012E00FFFD3395E04D600612016F0E80E478
:01013C0022A0
:06017700A298E433FF2210
:05017D00C298AF9922B9
:10013D00E4FDFCC3ED9FEC9E5015E4FBFA0BBB00F8
:0F014D00010AEB64714A70F50DBD00010C80E4EE
:01015C002280
:03000000020003F8
:0C000300787FE4F6D8FD75810A02015DEB
:1000EB00BB010CE58229F582E5833AF583E02250CA
:1000FB0006E92582F8E622BBFE06E92582F8E22214
:0D010B00E58229F582E5833AF583E493222D
:00000001FF
