:10005D00E4FDFCC3ED9FEC9E5015E4FBFA0BBB00D9
:0F006D00010AEB647B4A70F50DBD00010C80E4C5
:01007C002261
:02000300AD0747
:10000500E4FBEBC394087480948050237E007480D5
:10001500A803088006CEA2E713CE13D8F8FFEDF5A6
:1000250082EF558224FF92A1C2A0D2A00B80D3C239
:03003500A2D2A2B2
:0100380022A5
:10003900E4F508AF08E4FCFDFEFBFA7901F8D312F8
:10004900007D40ECAF081200037F647E0012005D62
:04005900050880DF37
:0300000002009368
:0C009300787FE4F6D8FD75810802003982
:10007D00EB9FF5F0EA9E42F0E99D42F0EC6480C8FA
:06008D0064809845F0229A
:00000001FF
