:100003000E11131519110E0E040404040C041F1011
:10001300080402110E0E11010601110E02021F1235
:100023000A06020E11011E10101F0E11111E1011CF
:100033000E0404040202011F0E11110E11110E0E03
:1000430011010F11110E1111111F11110E1E11119A
:100053001E11111E0E11101010110E1C1211111170
:10006300121C0F10101E10100F1010101E10100F66
:07007300FEFDFBF7EFDFBF0C
:10007A00E4F509D3E509940F7480948050F2E4F50D
:10008A000AC3E50A941474809480504EE4F508C3B8
:10009A00E508940774809480503CE50975F007A43C
:1000AA002403F582E43400F583E5822508F582E429
:1000BA003583F583E493F510E50890007393F51101
:1000CA007B007A0079107D021200E87F057E00121B
:0E00DA00017A050880B9050A80A705098095FE
:10017A00E4FDFCC3ED9FEC9E5015E4FBFA0BBB00BB
:0F018A00010AEB647B4A70F50DBD00010C80E4A7
:010199002243
:0800E8008B0B8A0C890D8D0EB3
:1000F000E4F50FE50FC3950E504EC3E50E950FFFC7
:10010000E49400FEAB0BE50D2FF9E50C3EFA90FFF1
:10011000FF12014DFDE4FBEBC39408748094805002
:10012000237E007480A803088006CEA2E713CE13B6
:10013000D8F8FFEDF582EF558224FF92A1C2A0D23C
:0C014000A00B80D3050F80ABC2A2D2A29E
:01014C002290
:0300000002019A60
:0C019A00787FE4F6D8FD75811102007A30
:10014D00BB010CE58229F582E5833AF583E0225067
:10015D0006E92582F8E622BBFE06E92582F8E222B1
:0D016D00E58229F582E5833AF583E49322CB
:00000001FF
