:100000000207EEAE07D2A0120791D2A2C2A27F29A8
:100010000207FA02082212081D1207D21206317DC9
:10002000107F07120778D28AD2AAD2AF750B00755B
:100030000C00750D2C750E00750F0075102B7511C9
:10004000007512007513237B007A0079291203B121
:10005000E52975F00A842430FB7D057F011207A98C
:10006000E52975F00A84E5F02430FF1200037F3A99
:10007000120003E52C75F00A842430FF120003E51A
:100080002C75F00A84E5F02430FF1200037F3A1249
:100090000003E52B75F00A842430FF120003E52BE2
:1000A00075F00A84E5F02430FF120003750B00752B
:1000B0000C00750D21750E00750F0075102475115B
:1000C000007512007513267B007A007928120493BC
:1000D00020B0030201627BFF7A11799F7D017F02CC
:1000E00012073BE52875F003A424B8F582E4341127
:1000F000F583E493FB740193FA740293F97D027F14
:100100000212073B7F20120003E52175F00A8424C8
:1001100030FF120003E52175F00A84E5F02430FF7A
:100120001200037F2F120003E52475F00A842430A7
:10013000FF120003E52475F00A84E5F02430FF1275
:1001400000037BFF7A1179B012071BE52675F00AD0
:10015000842430FF120003E52675F00A84E5F002DE
:100160000235750B00750C00750D22750E00750FAC
:1001700000751025751100751200751327AB26AD9B
:1001800024AF211202417BFF7A1179B47D017F02F5
:1001900012073BE52275F00A842430FF120003E5C4
:1001A0002275F00A84E5F02430FF1200037F2F123D
:1001B0000003E52575F00A842430FF120003E525CD
:1001C00075F00A84E5F02430FF1200037F2F12003F
:1001D00003E52624D0FFE43407FE7C037DE8120506
:1001E000DCEF2430FF120003E52624D0FFE43407BF
:1001F000FE7C007D641205DC7C007D0A1205DCEDCE
:100200002430FF120003E52624D0FFE43407FE7CEF
:10021000007D0A1205DC7C007D0A1205DCED24302D
:10022000FF120003E52624D0FFE43407FE7C007DA6
:100230000A1205DCED2430FF12000343870102009F
:100240002C8F088D098B0AE50A75F00CA47C002D13
:10025000FFEC35F0FEEF25E0FDEE33FC74212DF5CB
:100260008274083CF583E493F518740193F519E55D
:1002700019541FF514AE18AF19EF7805CEC313CE7D
:1002800013D8F9540FF515AE18AF19EEC313540176
:10029000241DF516AE18AF19EE13135401F517749B
:1002A000232DF58274083CF583E493F518740193CB
:1002B000F519E519541FFDAE18AF19EF7805CEC337
:1002C00013CE13D8F9540FFFE51465167068AE0508
:1002D000ED64027061E508FD7C006401700DAB0BFC
:1002E000AA0CA90DE5141205A8802AED641F4C7014
:1002F00014AB0BAA0CA90D041205A8AB0EAA0FA9EA
:1003000010EF020387E50814AB0BAA0CA90D120528
:10031000A8E517600AAB0EAA0FA910E5158068E5DD
:1003200015640C70047F018004E51504FFAB0EAA70
:100330000FA910EF8051E508251414AB0BAA0CA9E6
:100340000D1205A8AB0BAA0CA90D120562FFD395DF
:1003500016500AAB0EAA0FA910E515802AAB0BAAFE
:100360000CA90DC3EF95161205A8E51504C3951742
:10037000AB0EAA0FA9101205A8AB0EAA0FA9101256
:100380000562640D7004041205A8AB0EAA0FA91033
:10039000120562FFE509C39F400AAB11AA12A91317
:1003A000E50A8009E50A14AB11AA12A9131205A8DF
:1003B000228B088A09890A1208017FD012075AE4A1
:1003C000FF12075A1208017FD112075AD2011206F2
:1003D0008D8F16D20112068D8F15C20112068D8FD8
:1003E0001412081653167FE516C4540F75F00AA4AC
:1003F000FFE516540F2FAB0EAA0FA9101205A85334
:10040000157FE515C4540F75F00AA4FFE515540FC8
:100410002FAB0BAA0CA90D1205A8E51430E633ABDF
:1004200011AA12A913740C1205A8E51430E504D220
:10043000008002C20053141FE514C4540F75F00A63
:10044000A4FFE514540F2FAB08AA09A90A1205A8A6
:10045000803EAB11AA12A91374181205A853143FB9
:10046000E514C4540F75F00AA4FFE514540F2FAB24
:1004700008AA09A90A1205A8AB08AA09A90A12051F
:1004800062C3940C748094805004C2008002D20035
:10049000A200228B088A09890A1208017FD012075C
:1004A0005A7F0312075A1208017FD112075AD2014C
:1004B00012068DAB08AA09A90AEF1205A8D20112EB
:1004C000068DAB0BAA0CA90DEF1205A8D2011206DE
:1004D0008DAB0EAA0FA910EF1205A8C20112068D4E
:1004E000AB11AA12A913EF1205A8120816AB08AA9D
:1004F00009A90A12056254071205A8AB0BAA0CA998
:100500000D120562543F1205A8AB0BAA0CA90D12DF
:100510000562FFC4540F75F00AA4FEEF540F2E12AB
:1005200005A8AB0EAA0FA910120562541F1205A848
:10053000AB0EAA0FA910120562FFC4540F75F00A82
:10054000A4FEEF540F2E1205A8AB11AA12A9131284
:100550000562FFC4540F75F00AA4FEEF540F2E027B
:1005600005A8BB010689828A83E0225002E722BBEC
:10057000FE02E32289828A83E49322BB010CE58296
:1005800029F582E5833AF583E0225006E92582F8D1
:10059000E622BBFE06E92582F8E222E58229F58201
:1005A000E5833AF583E49322BB010689828A83F0CE
:1005B000225002F722BBFE01F322F8BB010DE582B7
:1005C00029F582E5833AF583E8F0225006E9258291
:1005D000C8F622BBFE05E92582C8F222BC000BBE8C
:1005E0000029EF8DF084FFADF022E4CCF875F0081F
:1005F000EF2FFFEE33FEEC33FCEE9DEC984005FC54
:10060000EE9DFE0FD5F0E9E4CEFD22EDF8F5F0EE1B
:100610008420D21CFEADF075F008EF2FFFED33FD06
:100620004007985006D5F0F222C398FD0FD5F0EAA6
:1006300022C2A0C2A27F147E001206DB7F03120733
:1006400098D2A2C2A27F057E001206DB7F031207AA
:1006500098D2A2C2A27F641207FA7F03120798D22F
:10066000A2C2A27F017E001206DB7F02120798D28F
:10067000A2C2A21F7E001206DB7F281206FB7F0C9F
:100680001206FB7F011206FB7F060206FBE4FFFE5B
:10069000EEC39408748094805013D291D290EF25C9
:1006A000E0FF309103430701C2900E80E330010365
:1006B00002080812080F228F081208017FD01207C3
:1006C0005AAF0812075A1208017FD112075AC20105
:1006D00012068D8F09120816AF0922E4FDFCC3ED46
:1006E0009FEC9E5015E4FBFA0BBB00010AEB647B08
:1006F0004A70F50DBD00010C80E422AE07C2A012C5
:100700000791D2A2C2A2EF24FE60030470077F0209
:100710007E000206DB7F251207FA228B0B8A0C89EA
:100720000DE4FDAB0BAA0CA90D8D8275830012059B
:100730007BFF60061200030D80E9228B088A09897D
:100740000AEF64017FC070027F80ED142FFF120654
:10075000FBAB08AA09A90A02071BE4FEEEC3940832
:1007600074809480500FEF339291D290C290EF2515
:10077000E0FF0E80E70207E18F088D091208017F74
:10078000D012075AAF0812075AAF0912075A0208C7
:10079000161207C0D2A2C2A2EFA2E392A7A2E292CF
:1007A000A6A2E192A51392A4228B08EF64017FC058
:1007B00070027F80ED142FFF1206FBAF08020003CA
:1007C000EF3392A7EFA2E692A6A2E592A5A2E49249
:1007D000A422E4FF1206B7AD0753057FE4FF02072A
:1007E00078D291D290A2919201C290A20122787FF8
:1007F000E4F6D8FD75812C020016AE071FEE70FAE4
:1008000022D290C291C29022C291D290C29022D2A2
:1008100091D290C29022C291D290D29122D290D203
:100820009122321B79099A1A3A125B187B109D1A91
:10083000BE18E21304192413461B66198702291AED
:100840004710681A89108A1AAB18CC10EE1B0F11CA
:10085000301B51197203941A3212531873129518DF
:10086000B51AD710F81919133B195B1B7D00211A13
:100870003D125E188112A218C21AE411051926133E
:100880004819681B8A082B1A4B104C1A6D128E18C7
:10089000AE1AD010F11B1211331B5419750397189F
:1008A0003512571877129918B91ADB12FC191C1354
:1008B0003E19611982022418421264188410A61A83
:1008C000C71AE810E91B0A132B194B1B6D018E1A6E
:1008D0002D104E1A6F109018B11AD310F41B151367
:1008E000361B5619770B991A381059187A129C181A
:1008F000BC18E111021B2311441B651B860227183B
:10090000451267188712A918A918CB12ED190D13F3
:100910002F194F1B7103921A3010511A7210931A2B
:10092000B418D510F71B1811391B5A197B039D1ADF
:100930003B105C1A7D129E18C118E211041B251190
:10094000461B6719880A2A1849126B1A8B108C1AD1
:10095000AD18CE12F01910133219521B7401951AEA
:100960003410551A7610971AB81AD910FA1B1B11A1
:100970003C1B5D19810022184110621A8310A41AD1
:10098000C518E613081B2811291B4A196B038D187B
:100990002B124D186D108F1AB018D112F31B1313B0
:1009A0003419541B7609971A3710581A79109A1867
:1009B000BB1ADD11011B2111421B631B8400251A88
:1009C0004410651A8610A718C81ACA10EB1B0C1120
:1009D0002D1B4E1B6F0390182E1250187012921878
:1009E000B218D412F6191611381B591B7A039B182A
:1009F00039125B1A7B109C1ABD18E11303192311DD
:100A0000451B661B8708281A4812691A89108A1A1A
:100A1000AB18CC10EE1B0F113019511B7303941837
:100A20003212541A7410951AB618D712F9191913EC
:100A30003B195B1B7D00211A3D10611A8112A31A1C
:100A4000C318E413061926134819681B8A002B1AC9
:100A50004A104B186C128E1AAE18CF12F11B1111DE
:100A6000321B5319740B9618351257187710991AB0
:100A7000BA18DB12FD1B1D11411B611982022418DB
:100A8000421264188410A61AC718C812EA190A1369
:100A90002C1B4C1B6D018E1A2D104E1A6F109018C6
:100AA000B11AD310F4191513371B571B7801991A73
:100AB0003812591879129B18BB18DD13011922132B
:100AC000441B6419850A271A461267188712A91849
:100AD000A918CB12ED190D112F1B501B7101921A81
:100AE0003112521872129418B41AD610F71B18113A
:100AF00039195A1B7C019D1A3C125D187D12A11AEE
:100B0000C11AE311041B2511461B671988002A1A14
:100B100049106A1A6B128C18AC1ACE12EF190F1307
:100B20003119511B730994183412561876129818FB
:100B3000B81ADA12FB191B133D1B5D19810022182C
:100B4000411062188312A518C51AE711081B291352
:100B50004A1B6A196B038D182B124D186D108F1AD2
:100B6000B018D110F31B1413351B55197603981ABE
:100B70003610571A78109918BA1ADC10FD1921137B
:100B80004219621B840A251A4410651A8610A71898
:100B9000C81ACA10EB190C132E194E1B7003911AA8
:100BA0002F10501A71129218B218D412F619161189
:100BB000381B59197A039C1A3A105B1A7C129D183B
:100BC000BD1AE11303192311451B66198702291A5F
:100BD0004710681A8912AA18AA1ACC10ED1B0E1118
:100BE0002F19501B7209931A3310541A7512961844
:100BF000B61AD810F91B1A133B195B1B7D0021187C
:100C00003D12611A8210A31AC418E513071B27139B
:100C10004819681B8A002B1A4A104B186C128E1840
:100C2000AE1AD010F11B12133319531B750396180B
:100C3000341256187610981AB918DA10FC1B1D13C6
:100C40003E19611B820A2318421264188410A61AE6
:100C5000C718E810EA1B0B112C1B4D1B6E038F1AD3
:100C60002D104E1A6F109018B11AD310F4191513D5
:100C70003719571B79039A1A3810591A7A109B1A88
:100C8000BC18DD13011922134419641B86022718AE
:100C90004512671A8710A81AA918CA12EC190C1164
:100CA0002E1B4F19700B92183112531A7310941A8D
:100CB000B51AD610F71B181139195A1B7C019D1A49
:100CC0003C105D1A7E12A21AC218E31305192513EF
:100CD000471B671988002A1A49106A1A6B108C1A68
:100CE000AD18CE12F01B1011311B521B730194185A
:100CF0003312551875129718B718D912FB1B1B1110
:100D00003C1B5D1B7E0A2118411062188312A51836
:100D1000C518E713091909132B1B4B1B6C018D1AFE
:100D20002C124D186D108F1AB018D110F31B14111E
:100D3000351B561B770398183612581878129A18D4
:100D4000BA1ADC10FD192111421B631B8400251AFD
:100D5000441265188512A718C71AC910EA190B138F
:100D60002D194D1B6F09901A301251187112931AD8
:100D7000B318D412F6191611381B59197A039C1896
:100D80003A125C187C129E1ABE1AE211031B24113F
:100D9000451B6619870229184712691889128B1892
:100DA000AB1ACD12EE190E133019501B7201931AA3
:100DB0003210531A7410951AB618D712F91919135C
:100DC0003B1B5B197C0B9E183D12611A8210A31805
:100DD000C41AE611071B2813491B69198A022C1A29
:100DE0004A106B186C128E18AE18D012F21912132A
:100DF000341B541B7501961A351256187610981A22
:100E0000B918DA10FC1B1D11411B611B8302241A47
:100E10004210631A8410A51AC618E710E91B0A11BC
:100E20002B1B4C196D0B8F1A2E124F186F12911825
:100E3000B11AD310F41915133719571B79019A1ADF
:100E400039125A187A129C1ABC18DD13021922138F
:100E50004419641B8600271A4610671A8812A918BD
:100E6000A91ACB10EC1B0D112E1B4F1970039218F1
:100E70003012521872129418B41AD612F7191713A6
:100E80003919591B7B099C1A3C105D1A7E10A21A55
:100E9000C31AE411051B26134719671B89002A1A78
:100EA00049106A1A8B108C18AD1ACF10F01B111351
:100EB000321B52197303951833125518751297186F
:100EC000B718D912FB191B133D195D1B8102221A99
:100ED0003E1262188212A418C418E61308190813E7
:100EE0002A194A1B6C0B8D1A2C104D1A6E108F1A72
:100EF000B018D110F31B14113519561B7803991A29
:100F00003710581A79129A18BA1ADC10FD192111E3
:100F10004219631B850226184412661A8610A71A06
:100F2000C818C912EB190B132D194D1B6F01901A1C
:100F30002F10501A7110921AB31AD410F51B1611F3
:100F4000371B5819790B9B183A125C187C129E18A3
:100F5000C118E213041B2411451B661987022918C6
:100F60004712691889108B1AAC18CD12EF1B0F119C
:100F7000301B511B7201931A3210531A74109518BA
:100F8000B61AD810F91B1A113B1B5C1B7D039E1867
:100F90003C125E188110A218C31AE511061B271116
:100FA000481B691B8A0A2B184A126C186C128E187F
:100FB000AE18D010F21B1311341B551B7603971873
:100FC0003512571A7710981AB918DA10FC1B1D1130
:100FD000411B621B8300241A431264188412A61852
:100FE000C61AE810E91B0A112B194C1B6E038F1847
:100FF0002D124F1A6F10901AB118D212F41914133F
:101000003619561B7809991A39105A1A7B109C1AEE
:10101000BD1ADE13021922134419641B8600271817
:10102000461268188812AA1AAA18CB12ED190D13C5
:101030002F1B4F19700392183010521A7310941A04
:10104000B518D612F81B1811391B5A1B7B019C1AB4
:101050003B105C1A7D10A11AC218E3130519251361
:10106000471B671B8808291A49106A1A8B108C18AD
:10107000AD18CF12F1191113331B531B7401951ABC
:101080003412551875129718B718D910FB1B1C117C
:101090003D1B5E1B8102231A411262188212A418A2
:1010A000C418E613081908112A1B4B196C038E1A71
:1010B0002C124D186D128F18AF1AD110F21B13118C
:1010C0003419551B7709981A3812591879129B1A36
:1010D000BB18DC12FE1921114219631B8500261A68
:1010E0004510661A8712A818C81ACA12EB190B13F2
:1010F0002D194D1B6F0190182F1251187112931852
:10110000B31AD512F6191613381B581979039B1800
:1011100039105B1A7C109D1ABE1AE211031B2413AE
:10112000451B6519860A28184712691889108B1AF9
:10113000AC18CD10EF1B1013311B51197203941A08
:101140003210531A74109518B618D812FA191A13C7
:101150003C1B5C197D02211A3D125E188110A218F9
:10116000C318E513071927134919691B8B022C1A99
:101170004A104B1A6C108D1AAE18CF10F11B1211B9
:10118000331B5453554E004D4F4E00545545005798
:1011900045440054485500465249005341540020EC
:1011A000202020202020202020202020202020005F
:1011B0002F3230004C554E41523A00FF1183FF113F
:1011C00087FF118BFF118FFF1193FF1197FF119B69
:00000001FF
