:100003008B0A8A0B890C8D0DE4F50EE50EC3950D55
:100013005051AB0A7C00E50C250DF9EC350BFAC306
:10002300E9950EF9EA9400FA90FFFF12006BF510C0
:10003300E4F50FC3E50F94087480948050217E008B
:100043007480A80F088006CEA2E713CE13D8F8FF5A
:10005300EF551024FF92A1C2A0D2A0050F80D405B2
:080063000E80A8C2A2D2A22265
:1000B80075081075090A7B007A0079087D0212001C
:0300C8000380FEB4
:10009800E4FDFCC3ED9FEC9E5015E4FBFA0BBB009E
:0F00A800010AEB647B4A70F50DBD00010C80E48A
:0100B7002226
:030000000200CB30
:0C00CB00787FE4F6D8FD7581100200B8C3
:10006B00BB010CE58229F582E5833AF583E022504A
:10007B0006E92582F8E622BBFE06E92582F8E22294
:0D008B00E58229F582E5833AF583E49322AE
:00000001FF
