:10000300309066758003E4F50AF50B7F147E0012C9
:1000130000D0309011050BE50B7002050AC3940A5A
:10002300E50A940040E5750800750901D3E50994D4
:1000330004E508940050C9E58025E025E0F580E457
:10004300F50AF50B7F147E001200D0309011050BDA
:10005300E50B7002050AC3940AE50A940040E5051E
:1000630009E50970C7050880C37580AAE4F508F59A
:10007300097F147E001200D02090110509E5097054
:10008300020508C3940AE508940040E57508007565
:100093000901D3E5099404E5089400400302000331
:1000A3006380FFE4F50AF50B7F147E001200D02075
:1000B3009011050BE50B7002050AC3940AE50A9437
:0D00C3000040E50509E50970C9050880C584
:1000D0005389F0438901EF4E6016758A27758CFCB1
:1000E000D28C308DFDC28CC28DEF1F70E91E80E670
:0100F00022ED
:030000000200F10A
:0C00F100787FE4F6D8FD75810B02000357
:00000001FF
