:100000000200D1C29FD29E53890F438920BE25088A
:10001000BF8005758DFD8014BE0908BF6005758D14
:10002000F48009BE040BBFB008758DE853877F804C
:100030000EE4B5070AEEB44B06758DFD438780D2FA
:100040008ED299D29C22BB010CE58229F582E583F0
:100050003AF583E0225006E92582F8E622BBFE0647
:10006000E92582F8E222E58229F582E5833AF583E3
:10007000E493228B088A09890AE4FEAB08AA09A93D
:100080000A8E82758300120046FFFD3395E04D60B5
:10009000061200DD0E80E422E4FDFCC3ED9FEC9E21
:1000A0005015E4FBFA0BBB00010AEB64714A70F5D2
:1000B0000DBD00010C80E4227F807E251200037BB1
:1000C000FF7A0079E51200737FE87E0312009880C2
:1000D000EE787FE4F6D8FD75810A0200B83099FD0C
:1000E000C2998F992248656C6C6F2C2069742773B4
:0700F000206D65210D0A00DF
:00000001FF
