:0800D500020A0000020800020B
:1000C1005389F0438901758C3C758AB0D2AFD2A9AE
:0400D100D28C80FE4F
:03000B0002009A56
:10009A00C0E0C0D0758C3C758AB0050BE50B7002C8
:1000AA00050AB5090DE50AB50808750A00750B00B9
:0700BA00B2A0D0D0D0E0326B
:0300000002000EED
:0C000E00787FE4F6D8FD75810B020055E8
:10001A000200C1E493A3F8E493A34003F68001F23B
:10002A0008DFF48029E493A3F85407240CC8C333E7
:10003A00C4540F4420C8834004F456800146F6DFB6
:10004A00E4800B01020408102040809000D5E47E71
:10005A00019360BCA3FF543F30E509541FFEE493AB
:10006A00A360010ECF54C025E060A840B8E493A372
:10007A00FAE493A3F8E493A3C8C582C8CAC583CA9D
:10008A00F0A3C8C582C8CAC583CADFE9DEE780BE55
:0100DD000022
:00000001FF
