:0D0275004B455920505245535345443A0023
:1000F5001201AF7BFF7A0279757D02E4FF1202439C
:10010500E4FD7F0112021512008F8F18EF3395E081
:100115004F601A7F1E7E001201D612008FE518B5BA
:10012500070BFF1202667FC87E001201D6AF18EFDB
:100135003395E0FEEF64014E70CD7F011201F67B31
:10014500FF7A0279757D02E4FF120243E4FD7F0127
:0501550012021580B24A
:1001D600E4FDFCC3ED9FEC9E5015E4FBFA0BBB005F
:0F01E600010AEB647B4A70F50DBD00010C80E44B
:0101F50022E7
:1001F600C2A08FB0C2A1D2A1EFFD64016005ED647B
:0F0206000270047F0280027F017E001201D62267
:10021500EFFB7A007005ED4480F51CEB64014A7034
:0B02250005ED44C0F51CAF1C0201F603
:0F026600D2A08FB0C2A1D2A17F017E000201D62B
:0A0282008B20120215AF2002026665
:060187008B1C8A1D891E7D
:10018D00E4F51FAB1CAA1DA91E851F8275830012E5
:10019D00015AFFFD3395E04D6007120266051F8081
:0101AD00E26F
:0101AE00222E
:100243008B198A1A891B120215AB19AA1AA91B0248
:02025300018721
:1001AF007F381201F67F057E001201D67F381201CB
:1001BF00F67F017E001201D67F381201F67F3812CA
:0701CF0001F67F0C0201F6AE
:1002300010083738392F343536783132332D0130C4
:020240003D2B54
:10025500D294D295D296D297D290D291D292D2936D
:010265002276
:10008F00E4FF120255C290209402AF08209502AFF0
:10009F0009209602AF0A209702AF0BD290C291208F
:1000AF009402AF0C209502AF0D209602AF0E209751
:1000BF0002AF0FD291C292209402AF10209502AFDF
:1000CF0011209602AF12209702AF13D292C2932043
:1000DF009402AF14209502AF15209602AF16209709
:0500EF0002AF17D293DF
:0100F40022E9
:03000000020003F8
:0C000300787FE4F6D8FD75812002004AE9
:10015A00BB010CE58229F582E5833AF583E022505A
:10016A0006E92582F8E622BBFE06E92582F8E222A4
:0D017A00E58229F582E5833AF583E49322BE
:10000F000200F5E493A3F8E493A34003F68001F212
:10001F0008DFF48029E493A3F85407240CC8C333F2
:10002F00C4540F4420C8834004F456800146F6DFC1
:10003F00E4800B0102040810204080900230E47E1F
:10004F00019360BCA3FF543F30E509541FFEE493B6
:10005F00A360010ECF54C025E060A840B8E493A37D
:10006F00FAE493A3F8E493A3C8C582C8CAC583CAA8
:10007F00F0A3C8C582C8CAC583CADFE9DEE780BE60
:0102420000BB
:00000001FF
