:0B00C6002C2078696E206368616F00D9
:10007800C2A08FB0C2A1D2A1D3EF940274809480A1
:0E00880050047F0280027F017E001200582289
:0F00AB00D2A08FB0C2A1D2A17F017E0002005867
:060030008B088A09890A11
:10003600E4F50BAB08AA09A90A850B8275830012A1
:100046000003FFFD3395E04D60071200AB050B8002
:01005600E2C7
:010057002286
:100096007F0E1200787F411200AB7BFF7A0079C693
:0500A60012003080FE95
:10005800E4FDFCC3ED9FEC9E5015E4FBFA0BBB00DE
:0F006800010AEB647B4A70F50DBD00010C80E4CA
:010077002266
:030000000200BA41
:0C00BA00787FE4F6D8FD75810B020096FB
:10000300BB010CE58229F582E5833AF583E02250B2
:1000130006E92582F8E622BBFE06E92582F8E222FC
:0D002300E58229F582E5833AF583E4932216
:00000001FF
