:0F02C700434F554E5445443A00303030303000EC
:0C02E5000A0830313233343536373839EE
:080003007D057C007F017E00F9
:04000B008A128B13B7
:10000F0012029AAE12AF137C277D10120177AB0745
:10001F00AA06AE12AF137C277D101201778C128DBA
:10002F0013AF0374082FF8E6FF1202D6AE12AF1308
:10003F007C037DE8120177AA06AB07AE12AF137CE3
:10004F00037DE81201778C128D13AF0374082FF81C
:10005F00E6FF1202D6AE12AF137C007D6412017759
:10006F00AA06AB07AE12AF137C007D641201778C2A
:10007F00128D13AF0374082FF8E6FF1202D6AE12DB
:10008F00AF137C007D0A120177AB07AE12AF137C62
:10009F00007D0A1201778C128D13AF0374082FF8AD
:0F00AF00E6FF1202D674082513F8E6FF0202D608
:0B02F200AD8A858C12AF8CEFFEEDFF93
:0102FD0022DE
:1001CC005389F0438905D28C1202347BFF7A027971
:1001DC00C77D04E4FF1202B57A027BD01200031231
:1001EC0002F2AA06AB0712000320B5F37F147E00BF
:1001FC0012025B20B5E9E4F58AF58C20B5E180FBB1
:10025B00E4FDFCC3ED9FEC9E5015E4FBFA0BBB00D9
:0F026B00010AEB64714A70F50DBD00010C80E4CF
:01027A002261
:10027B00C2B68FA0C2B7D2B7EFFD64016005ED64C3
:0F028B000270047F0280027F017E0012025B225C
:10029A00EFFB7A007005ED4480F515EB64014A70B6
:0B02AA0005ED44C0F515AF1502027B06
:0F02D600D2B68FA0C2B7D2B77F017E0002025B03
:0A02FE008B1912029AAF190202D602
:06020C008B158A1689170C
:10021200E4F518AB15AA16A9178518827583001282
:10022200014AFFFD3395E04D60071202D6051880A2
:01023200E2E9
:0102330022A8
:1002B5008B128A13891412029AAB12AA13A914027B
:0202C500020C29
:100234007F3812027B7F057E0012025B7F38120238
:100244007B7F017E0012025B7F3812027B7F3812B3
:07025400027B7F0C02027B1C
:030000000200BE3D
:0C00BE00787FE4F6D8FD75811902010579
:10014A00BB010CE58229F582E5833AF583E022506A
:10015A0006E92582F8E622BBFE06E92582F8E222B4
:0D016A00E58229F582E5833AF583E49322CE
:10017700BC000BBE0029EF8DF084FFADF022E4CC6C
:10018700F875F008EF2FFFEE33FEEC33FCEE9DEC35
:10019700984005FCEE9DFE0FD5F0E9E4CEFD22ED7B
:1001A700F8F5F0EE8420D21CFEADF075F008EF2FC5
:1001B700FFED33FD4007985006D5F0F222C398FDB6
:0501C7000FD5F0EA2253
:1000CA000201CCE493A3F8E493A34003F68001F27F
:1000DA0008DFF48029E493A3F85407240CC8C33337
:1000EA00C4540F4420C8834004F456800146F6DF06
:1000FA00E4800B01020408102040809002E5E47EAF
:10010A00019360BCA3FF543F30E509541FFEE493FA
:10011A00A360010ECF54C025E060A840B8E493A3C1
:10012A00FAE493A3F8E493A3C8C582C8CAC583CAEC
:10013A00F0A3C8C582C8CAC583CADFE9DEE780BEA4
:0102F100000C
:00000001FF
