:10017600310032330034003536003700383900415B
:0401860000424300F0
:100003007FB07E041200A97BFF7A01797612013159
:100013007FF47E011201567BFF7A01797812013158
:100023007FF47E011201567F607E0912010C7BFF73
:100033007A01797B1201317FF47E011201567BFF35
:100043007A01797D1201317FF47E011201567F809E
:100053007E2512010C7BFF7A0179801201317FF436
:100063007E011201567BFF7A0179821201317FF4FE
:100073007E011201567F007E4B12010C7BFF7A0139
:1000830079851201317FF47E011201567BFF7A01DB
:1000930079871201317FF47E011201567FB07E040D
:0600A30012010C02000A2C
:1000A900C29FD29E53890F438920BE250BBF80086A
:1000B900758DF94387808017BE0908BF6005758D66
:1000C900F38009BE0409BFB006758DE653877FD258
:0600D9008ED299D29C2298
:10010C00BE250ABF8007758DF943878022BE09087A
:10011C00BF6005758DF38009BE0409BFB006758DEF
:05012C00E653877F226D
:080196003099FDC2998F9922F6
:060131008B088A09890A0F
:10013700E4FEAB08AA09A90A8E827583001200DFC4
:0E014700FFFD3395E04D60061201960E80E438
:010155002287
:06019E00A298E433FF22E9
:0501A400C298AF992292
:10015600E4FDFCC3ED9FEC9E5015E4FBFA0BBB00DF
:0F016600010AEB647B4A70F50DBD00010C80E4CB
:010175002267
:0300000002018A70
:0C018A00787FE4F6D8FD75810A020003BE
:1000DF00BB010CE58229F582E5833AF583E02250D6
:1000EF0006E92582F8E622BBFE06E92582F8E22220
:0D00FF00E58229F582E5833AF583E493223A
:00000001FF
