:100611004572726F720048756D203D2025642E254C
:10062100640054656D203D2025642E2564002564F9
:040631002020200065
:10035F0012051212070912072112056E8E108F1146
:10036F0012056E8E0C8F0D12056E8E0E8F0F1205ED
:10037F006E8E0A8F0B12056E8E088F09E511250DF3
:10038F00FFE510350CFEE50F2FFFE50E3EFEE50BEA
:10039F002FFFE50A3EFEEF65097003EE6508600C5E
:1003AF007BFF7A067911E4FDFF02044B7539FF7567
:1003BF003A06753B1785103C85113D850C3E850D22
:1003CF003F7B007A00792212005F7B007A0079224E
:1003DF00E4FDFF1206357539FF753A06753B238527
:1003EF000E3C850F3D850A3E850B3F7B007A0079D9
:1003FF002212005F7B007A007922E4FD7F01120652
:10040F00357FDF1206F97F431206F97E007F147DD8
:10041F00007B007A0079221204857539FF753A0640
:10042F00753B2F85083C85093D7B007A00792212A8
:10043F00005F7B007A0079227D0D7F011206357FE8
:09044F00F47E011206960203621C
:1006E700EF3392A7EFA2E692A6A2E592A5A2E49223
:0206F700A4223B
:0706CF001206E7D282C2828D
:1006D600EFA2E392A7A2E292A6A2E192A51392A4A8
:0106E60022F1
:07072B00AE071FEE70FA2279
:10051200C280C2827F147E001206967F031206D624
:10052200D282C2827F057E001206967F031206D611
:10053200D282C2827F6412072B7F031206D6D28236
:10054200C2827F017E001206967F021206D6D282F6
:10055200C2821F7E001206967F281206567F0C1258
:0C05620006567F011206567F0602065660
:10065600AE07C2801206CFD282C282EF24FE6003AA
:100666000470077F027E000206967F2512072B2262
:1006F900AE07D2801206CFD282C2827F2902072B8F
:0206B6008B15A2
:1006B800EF640170047F8080027FC0ED142FFF1269
:0706C8000656AF150206F90A
:060676008B398A3A893B32
:10067C00E4FDAB39AA3AA93B8D827583001204586C
:09068C00FF60061206F90D80E979
:010695002242
:060635008B368A3789387C
:10063B00EF640170047F8080027FC0ED142FFF12E6
:0B064B000656AB36AA37A93802067627
:0605B7008B128A13891467
:1005BD00EF75F008A42440FF120656E4FDEDD39428
:1005CD0007748094805015AB12AA13A9148D8275EF
:0C05DD008300120458FF1206F90D80E1A3
:0105E90022EF
:10069600E4FDFCC3ED9FEC9E5015E4FBFA0BBB009A
:0F06A600010AEB647B4A70F50DBD00010C80E486
:0106B5002222
:0C070900C2A17F147E00120696D2A1222D
:0A07210020A1FD30A1FD20A1FD2262
:10056E00E4F538F539F536F53730A1FD7F017E001B
:10057E00120696E53925E030A10DFFE53833F53842
:10058E00EF4401F5398007F539E53833F53820A108
:10059E00FD0537E53770020536C39408E5366480ED
:0805AE00948040C5AE38AF395E
:0105B6002222
:03000000020715DF
:0C071500787FE4F6D8FD75814902035F8F
:10045800BB010CE58229F582E5833AF583E0225059
:1004680006E92582F8E622BBFE06E92582F8E222A3
:0D047800E58229F582E5833AF583E49322BD
:10000300E5452439F8E60545227836300702783984
:10001300E475F0011204DC0204B12000EB7F2ED260
:10002300008018EF540F2490D43440D4FF30040BD5
:10003300EF24BFB41A0050032461FFE546600215A4
:10004300460549E5497002054830070D7836E475E1
:10005300F0011204DCEF0204CA0205EA7403D207BA
:100063008003E4C207F5458B368A378938E4F546C1
:10007300F548F549E54660077F2012003E80F57597
:1000830047FFC201C200C202C203C205C206C208C0
:1000930012000CFF700D3007057F0012004FAF49AF
:1000A300AE4822B4255FC2D5C20412000CFF24D08F
:1000B300B40A00501A75F00A784630D50508B6FF21
:1000C3000106C6A426F620D5047002D20380D924E3
:1000D300CFB41A00EF5004C2E5D20402024FD2019A
:1000E30080C6D20080C0D20280BCD2D580BAD205ED
:1000F30080B47F2012003E2002077401B546004001
:10010300F1120003FF12003E020077D208D20680EC
:1001130095120003FB120003FA120003F94A4B7015
:100123000679207A037BFF20022EE546602A7E00B3
:100133008E8275830012045860060EEE654770F0D8
:10014300C2D5EBC0E0EAC0E0E9C0E0EE120296D00F
:10015300E0F9D0E0FAD0E0FB1204B1FF60AAEBC0F3
:10016300E0EAC0E0E9C0E012003ED0E02401F9D0AB
:10017300E03400FAD0E0FBE5470460DCD547D980E2
:10018300877BFF7A027992D202809C791080027970
:1001930008C206C2088008D2D5790A8004790AC247
:1001A300D5E547047002F547E4FAFDFEFF120003AC
:1001B300FC7B08200113120003FD7B1030000A12A0
:1001C3000003FE120003FF7B20EC3382D592D5504F
:1001D30013C3E43000069FFFE49EFEE42001039D69
:1001E300FDE49CFCE4CBF8C201EC700CCFCECDCC8B
:1001F300E824F8F870F38017C3EF33FFEE33FEED16
:1002030033FDEC33FCEB33FB994002FB0FD8E9EBF6
:10021300300105F8D0E0C448B201C0E00AEC4D4E0D
:100223004F78207B0070C2EAB5470040BCC0E012A3
:100233000298D0F0D0E0200104C4C0E0C4B201C0F1
:10024300F0120027D0F0D5F0EB0200771204EC0196
:100253001453018E5800E54C00E14201924F019A7C
:0F02630044019A4900FA4301A0550184460184E1
:100272004501844703405000E92D00ED2E01102B6B
:1002820000F123010E2003292A00A94800000108D9
:100292003F3F3F00790AA2D5200314300509B91067
:1002A200020404B9080104A2D52006025001042068
:1002B20002689202B546005034C0E07F2030031934
:1002C2007F30A20272067205500F1202EFC202C202
:1002D20006C205C2087F30800F300503E9C0E01274
:1002E200003E300503D0E0F9D0E0B546CC3005172A
:1002F2007F30B9100C12003E7F583004077F78809F
:1003020003B9080312003E3002057F2D02003E7F32
:10031200202008F87F2B2006F322920280CF286E3D
:10032200756C6C2900D2011200033001F8C2017809
:100332004630D50108F60200A92D50434958120053
:10034200032403B405004001E490033B9312002F01
:0D035200743A12002FD20375460402018E8A
:10048500EF4E6012EF60010EEDBB010B89828A838E
:10049500F0A3DFFCDEFA2289F05007F709DFFCA99B
:0C04A500F022BBFEFCF309DFFCA9F022F2
:1004B100BB010689828A83E0225002E722BBFE0249
:0904C100E32289828A83E493227C
:1004CA00BB010689828A83F0225002F722BBFE0111
:0204DA00F3220B
:1004DC00FAE6FB0808E6F925F0F618E6CA3AF62221
:1004EC00D083D082F8E4937012740193700DA3A39F
:1004FC0093F8740193F5828883E4737402936860B3
:06050C00EFA3A3A380DFB2
:1005EA00EFB40A07740D1205F5740A309811A89928
:1005FA00B8130CC2983098FDA899C298B811F63071
:07060A0099FDC299F5992248
:00000001FF
