:0A0164005159540045542D4539004F
:100003001200B67F711201497FE87E031200DDE41E
:10001300FDFF12011C7FE87E031200DD7BFF7A01E6
:10002300796412008E7FE87E031200DD7B317D0F41
:100033007F0112016E7FE87E031200DD7BFF7A01F0
:1000430079687D027F011201377FE87E031200DDAC
:0E0053007F011200FD7FE87E031200DD80A514
:1000DD00E4FDFCC3ED9FEC9E5015E4FBFA0BBB0059
:0F00ED00010AEB647B4A70F50DBD00010C80E445
:0100FC0022E1
:1000FD00C2A08FB0C2A1D2A1EFFD64016005ED6475
:0F010D000270047F0280027F017E001200DD225B
:10011C00EFFB7A007005ED4480F50BEB64014A703F
:0B012C0005ED44C0F50BAF0B0200FD19
:0F014900D2A08FB0C2A1D2A17F017E000200DD43
:0A016E008B0812011CAF08020149C2
:06008E008B0B8A0C890DAA
:10009400E4F50EAB0BAA0CA90D850E827583001234
:1000A4000061FFFD3395E04D6007120149050E80A4
:0100B400E269
:0100B5002228
:100137008B088A09890A12011CAB08AA09A90A02B5
:02014700008E28
:1000B6007F381200FD7F057E001200DD7F381200BA
:1000C600FD7F017E001200DD7F381200FD7F3812B1
:0700D60000FD7F0C0200FD9C
:03000000020158A2
:0C015800787FE4F6D8FD75810E020003EC
:10006100BB010CE58229F582E5833AF583E0225054
:1000710006E92582F8E622BBFE06E92582F8E2229E
:0D008100E58229F582E5833AF583E49322B8
:00000001FF
