:100000000207EA1208191207CE12061D7530007594
:10001000310075322275330075340075352375361D
:10002000007537007538247B007A00792112039D12
:10003000E529652360D6852329E52175F00A842406
:1000400030FB7D057F01120795E52175F00A84E5F7
:10005000F02430FF1207BE7F3A1207BEE52275F08A
:100060000A842430FF1207BEE52275F00A84E5F009
:100070002430FF1207BE7F3A1207BEE52375F00A4F
:10008000842430FF1207BEE52375F00A84E5F024CE
:1000900030FF1207BE75300075310075322675339A
:1000A00000753400753527753600753700753828AA
:1000B0007B007A00792512047F20B0030201517B76
:1000C000FF7A11799A7D017F02120727E52575F0E5
:1000D00003A424B3F582E43411F583E493FB7401A3
:1000E00093FA740293F97D027F021207277F201290
:1000F00007BEE52675F00A842430FF1207BEE52608
:1001000075F00A84E5F02430FF1207BE7F2F120736
:10011000BEE52775F00A842430FF1207BEE5277577
:10012000F00A84E5F02430FF1207BE7BFF7A1179D4
:10013000AB120707E52875F00A842430FF1207BECA
:10014000E52875F00A84E5F02430FF1207BE0200AE
:100150000C75300075310075322A75330075340026
:1001600075352B75360075370075382CAB28AD27E3
:10017000AF2612022D7BFF7A1179AF7D017F02122B
:100180000727E52A75F00A842430FF1207BEE52A06
:1001900075F00A84E5F02430FF1207BE7F2F1207A6
:1001A000BEE52B75F00A842430FF1207BEE52B75DF
:1001B000F00A84E5F02430FF1207BE7F2F1207BE3D
:1001C000E52824D0FFE43407FE7C037DE81205C84F
:1001D000EF2430FF1207BEE52824D0FFE43407FEE9
:1001E0007C007D641205C87C007D0A1205C8ED24E0
:1001F00030FF1207BEE52824D0FFE43407FE7C0060
:100200007D0A1205C87C007D0A1205C8ED2430FF66
:100210001207BEE52824D0FFE43407FE7C007D0AE7
:100220001205C8ED2430FF1207BE02000C8F2D8D81
:100230002E8B2FE52F75F00CA47C002DFFEC35F0F4
:10024000FEEF25E0FDEE33FC741C2DF58274083CB6
:10025000F583E493F53D740193F53EE53E541FF5B7
:1002600039AE3DAF3EEF7805CEC313CE13D8F95467
:100270000FF53AAE3DAF3EEEC3135401241DF53BDE
:10028000AE3DAF3EEE13135401F53C741E2DF582C6
:1002900074083CF583E493F53D740193F53EE53E27
:1002A000541FFDAE3DAF3EEF7805CEC313CE13D83D
:1002B000F9540FFFE539653B7068AE05ED640270D7
:1002C00061E52DFD7C006401700DAB30AA31A932CF
:1002D000E539120594802AED641F4C7014AB30AAE6
:1002E00031A93204120594AB33AA34A935EF0203C5
:1002F00073E52D14AB30AA31A932120594E53C60A8
:100300000AAB33AA34A935E53A8068E53A640C7043
:10031000047F018004E53A04FFAB33AA34A935EF2A
:100320008051E52D253914AB30AA31A9321205943C
:10033000AB30AA31A93212054EFFD3953B500AAB20
:1003400033AA34A935E53A802AAB30AA31A932C3A1
:10035000EF953B120594E53A04C3953CAB33AA34C0
:10036000A935120594AB33AA34A93512054E640D94
:10037000700404120594AB33AA34A93512054EFF5C
:10038000E52EC39F400AAB36AA37A938E52F80096E
:10039000E52F14AB36AA37A938120594228B2D8A83
:1003A0002E892F1207FD7FD0120746E4FF12074661
:1003B0001207FD7FD1120746D2011206798F3BD278
:1003C000011206798F3AC2011206798F391208128A
:1003D000533B7FE53BC4540F75F00AA4FFE53B5443
:1003E0000F2FAB33AA34A935120594533A7FE53A5F
:1003F000C4540F75F00AA4FFE53A540F2FAB30AA8E
:1004000031A932120594E53930E633AB36AA37A963
:1004100038740C120594E53930E504D2008002C22C
:100420000053391FE539C4540F75F00AA4FFE539AC
:10043000540F2FAB2DAA2EA92F120594803EAB3658
:10044000AA37A938741812059453393FE539C454B2
:100450000F75F00AA4FFE539540F2FAB2DAA2EA972
:100460002F120594AB2DAA2EA92F12054EC3940C62
:10047000748094805004C2008002D200A200228BBB
:100480002D8A2E892F1207FD7FD01207467F031277
:1004900007461207FD7FD1120746D201120679AB3B
:1004A0002DAA2EA92FEF120594D201120679AB3096
:1004B000AA31A932EF120594D201120679AB33AA00
:1004C00034A935EF120594C201120679AB36AA376A
:1004D000A938EF120594120812AB2DAA2EA92F12DB
:1004E000054E5407120594AB30AA31A93212054EBD
:1004F000543F120594AB30AA31A93212054EFFC405
:10050000540F75F00AA4FEEF540F2E120594AB336E
:10051000AA34A93512054E541F120594AB33AA34E0
:10052000A93512054EFFC4540F75F00AA4FEEF540E
:100530000F2E120594AB36AA37A93812054EFFC408
:10054000540F75F00AA4FEEF540F2E020594BB0160
:100550000689828A83E0225002E722BBFE02E32260
:1005600089828A83E49322BB010CE58229F582E526
:10057000833AF583E0225006E92582F8E622BBFEA5
:1005800006E92582F8E222E58229F582E5833AF53B
:1005900083E49322BB010689828A83F0225002F70A
:1005A00022BBFE01F322F8BB010DE58229F582E5AD
:1005B000833AF583E8F0225006E92582C8F622BB8B
:1005C000FE05E92582C8F222BC000BBE0029EF8D92
:1005D000F084FFADF022E4CCF875F008EF2FFFEEC9
:1005E00033FEEC33FCEE9DEC984005FCEE9DFE0FD7
:1005F000D5F0E9E4CEFD22EDF8F5F0EE8420D21C32
:10060000FEADF075F008EF2FFFED33FD4007985079
:1006100006D5F0F222C398FD0FD5F0EA22C2A0C29F
:10062000A27F147E001206C77F03120784D2A2C2E3
:10063000A27F057E001206C77F03120784D2A2C2E2
:10064000A27F641207F67F03120784D2A2C2A27FA0
:10065000017E001206C77F02120784D2A2C2A21F27
:100660007E001206C77F281206E77F0C1206E77F7E
:10067000011206E77F060206E7E4FFFEEEC39408D8
:10068000748094805013D291D290EF25E0FF309186
:1006900003430701C2900E80E330010302080412F5
:1006A000080B228F2D1207FD7FD0120746AF2D12A7
:1006B00007461207FD7FD1120746C2011206798F45
:1006C0002E120812AF2E22E4FDFCC3ED9FEC9E50CB
:1006D00015E4FBFA0BBB00010AEB647B4A70F50DD5
:1006E000BD00010C80E422AE07C2A012077DD2A299
:1006F000C2A2EF24FE60030470077F027E000206A0
:10070000C77F251207F6228B308A318932E4FDAB90
:1007100030AA31A9328D82758300120567FF600609
:100720001207BE0D80E9228B2D8A2E892FEF6401DE
:100730007FC070027F80ED142FFF1206E7AB2DAA59
:100740002EA92F020707E4FEEEC39408748094805C
:10075000500FEF339291D290C290EF25E0FF0E80C0
:10076000E70207DD8F2D8D2E1207FD7FD012074681
:10077000AF2D120746AF2E1207460208121207AC21
:10078000D2A2C2A2EFA2E392A7A2E292A6A2E19213
:10079000A51392A4228B2DEF64017FC070027F808D
:1007A000ED142FFF1206E7AF2D0207BEEF3392A71D
:1007B000EFA2E692A6A2E592A5A2E492A422AE0739
:1007C000D2A012077DD2A2C2A27F290207F6E4FFBF
:1007D0001206A3AD0753057FE4FF020764D291D24E
:1007E00090A2919201C290A20122787FE4F6D8FDF6
:1007F00075813E020003AE071FEE70FA22D290C24E
:1008000091C29022C291D290C29022D291D290C233
:100810009022C291D290D29122D290D291221B7971
:10082000099A1A3A125B187B109D1ABE18E213043B
:10083000192413461B66198702291A4710681A895A
:10084000108A1AAB18CC10EE1B0F11301B51197205
:1008500003941A3212531873129518B51AD710F858
:100860001919133B195B1B7D00211A3D125E18817B
:1008700012A218C21AE411051926134819681B8A16
:10088000082B1A4B104C1A6D128E18AE1AD010F19C
:100890001B1211331B54197503971835125718770B
:1008A000129918B91ADB12FC191C133E196119822E
:1008B000022418421264188410A61AC71AE810E914
:1008C0001B0A132B194B1B6D018E1A2D104E1A6F1C
:1008D000109018B11AD310F41B1513361B56197744
:1008E0000B991A381059187A129C18BC18E1110289
:1008F0001B2311441B651B860227184512671887A6
:1009000012A918A918CB12ED190D132F194F1B712D
:1009100003921A3010511A7210931AB418D510F7A6
:100920001B1811391B5A197B039D1A3B105C1A7D49
:10093000129E18C118E211041B2511461B67198865
:100940000A2A1849126B1A8B108C1AAD18CE12F0A5
:100950001910133219521B7401951A3410551A7656
:1009600010971AB81AD910FA1B1B113C1B5D19817C
:100970000022184110621A8310A41AC518E6130841
:100980001B2811291B4A196B038D182B124D186D4A
:10099000108F1AB018D112F31B13133419541B768D
:1009A00009971A3710581A79109A18BB1ADD1101D5
:1009B0001B2111421B631B8400251A4410651A86F3
:1009C00010A718C81ACA10EB1B0C112D1B4E1B6F59
:1009D0000390182E12501870129218B218D412F6F2
:1009E000191611381B591B7A039B1839125B1A7B95
:1009F000109C1ABD18E11303192311451B661B87B0
:100A000008281A4812691A89108A1AAB18CC10EEF5
:100A10001B0F113019511B730394183212541A749E
:100A200010951AB618D712F91919133B195B1B7DCB
:100A300000211A3D10611A8112A31AC318E413068B
:100A40001926134819681B8A002B1A4A104B186C78
:100A5000128E1AAE18CF12F11B1111321B531974DA
:100A60000B9618351257187710991ABA18DB12FD21
:100A70001B1D11411B611982022418421264188443
:100A800010A61AC718C812EA190A132C1B4C1B6DA2
:100A9000018E1A2D104E1A6F109018B11AD310F43F
:100AA000191513371B571B7801991A3812591879E1
:100AB000129B18BB18DD1301192213441B641985FE
:100AC0000A271A461267188712A918A918CB12ED1F
:100AD000190D112F1B501B7101921A3112521872ED
:100AE000129418B41AD610F71B181139195A1B7C16
:100AF000019D1A3C125D187D12A11AC11AE311045E
:100B00001B2511461B671988002A1A49106A1A6B9F
:100B1000128C18AC1ACE12EF190F133119511B7326
:100B20000994183412561876129818B81ADA12FB6B
:100B3000191B133D1B5D1981002218411062188397
:100B400012A518C51AE711081B29134A1B6A196B4D
:100B5000038D182B124D186D108F1AB018D110F389
:100B60001B1413351B55197603981A3610571A782B
:100B7000109918BA1ADC10FD1921134219621B844E
:100B80000A251A4410651A8610A718C81ACA10EB4D
:100B9000190C132E194E1B7003911A2F10501A7135
:100BA000129218B218D412F6191611381B59197A64
:100BB000039C1A3A105B1A7C129D18BD1AE11303AC
:100BC000192311451B66198702291A4710681A89CB
:100BD00012AA18AA1ACC10ED1B0E112F19501B7255
:100BE00009931A3310541A75129618B61AD810F9B8
:100BF0001B1A133B195B1B7D0021183D12611A82E1
:100C000010A31AC418E513071B27134819681B8A79
:100C1000002B1A4A104B186C128E18AE1AD010F115
:100C20001B12133319531B7503961834125618767A
:100C300010981AB918DA10FC1B1D133E19611B829B
:100C40000A2318421264188410A61AC718E810EA7A
:100C50001B0B112C1B4D1B6E038F1A2D104E1A6F80
:100C6000109018B11AD310F41915133719571B79AE
:100C7000039A1A3810591A7A109B1ABC18DD1301FE
:100C80001922134419641B860227184512671A8714
:100C900010A81AA918CA12EC190C112E1B4F1970A2
:100CA0000B92183112531A7310941AB51AD610F702
:100CB0001B181139195A1B7C019D1A3C105D1A7EB4
:100CC00012A21AC218E31305192513471B671988C6
:100CD000002A1A49106A1A6B108C1AAD18CE12F03D
:100CE0001B1011311B521B730194183312551875C8
:100CF000129718B718D912FB1B1B113C1B5D1B7EEA
:100D00000A2118411062188312A518C518E71309A3
:100D10001909132B1B4B1B6C018D1A2C124D186DCE
:100D2000108F1AB018D110F31B1411351B561B77F6
:100D30000398183612581878129A18BA1ADC10FD4F
:100D4000192111421B631B8400251A441265188562
:100D500012A718C71AC910EA190B132D194D1B6FCA
:100D600009901A301251187112931AB318D412F64E
:100D7000191611381B59197A039C183A125C187C01
:100D8000129E1ABE1AE211031B2411451B66198715
:100D90000229184712691889128B18AB1ACD12EE66
:100DA000190E133019501B7201931A3210531A7412
:100DB00010951AB618D712F91919133B1B5B197C39
:100DC0000B9E183D12611A8210A318C41AE611076F
:100DD0001B2813491B69198A022C1A4A106B186CBC
:100DE000128E18AE18D012F2191213341B541B7540
:100DF00001961A351256187610981AB918DA10FC9E
:100E00001B1D11411B611B8302241A4210631A84AB
:100E100010A51AC618E710E91B0A112B1B4C196DF7
:100E20000B8F1A2E124F186F129118B11AD310F49B
:100E30001915133719571B79019A1A39125A187A4A
:100E4000129C1ABC18DD13021922134419641B8664
:100E500000271A4610671A8812A918A91ACB10EC95
:100E60001B0D112E1B4F197003921830125218725D
:100E7000129418B41AD612F71917133919591B7B83
:100E8000099C1A3C105D1A7E10A21AC31AE41105BF
:100E90001B26134719671B89002A1A49106A1A8BE7
:100EA000108C18AD1ACF10F01B1113321B5219738E
:100EB0000395183312551875129718B718D912FBE5
:100EC000191B133D195D1B8102221A3E1262188202
:100ED00012A418C418E613081908132A194A1B6C1F
:100EE0000B8D1A2C104D1A6E108F1AB018D110F3EA
:100EF0001B14113519561B7803991A3710581A7993
:100F0000129A18BA1ADC10FD1921114219631B85B7
:100F10000226184412661A8610A71AC818C912EBBE
:100F2000190B132D194D1B6F01901A2F10501A71A8
:100F300010921AB31AD410F51B1611371B581979D1
:100F40000B9B183A125C187C129E18C118E213040D
:100F50001B2411451B661987022918471269188935
:100F6000108B1AAC18CD12EF1B0F11301B511B72D6
:100F700001931A3210531A74109518B61AD810F932
:100F80001B1A113B1B5C1B7D039E183C125E1881D3
:100F900010A218C31AE511061B2711481B691B8AEA
:100FA0000A2B184A126C186C128E18AE18D010F258
:100FB0001B1311341B551B760397183512571A77DC
:100FC00010981AB918DA10FC1B1D11411B621B8303
:100FD00000241A431264188412A618C61AE810E9ED
:100FE0001B0A112B194C1B6E038F182D124F1A6FF1
:100FF00010901AB118D212F41914133619561B781E
:1010000009991A39105A1A7B109C1ABD1ADE13025C
:101010001922134419641B86002718461268188881
:1010200012AA1AAA18CB12ED190D132F1B4F197003
:101030000392183010521A7310941AB518D612F879
:101040001B1811391B5A1B7B019C1A3B105C1A7D23
:1010500010A11AC218E31305192513471B671B8833
:1010600008291A49106A1A8B108C18AD18CF12F182
:10107000191113331B531B7401951A34125518752B
:10108000129718B718D910FB1B1C113D1B5E1B8152
:1010900002231A411262188212A418C418E6130817
:1010A0001908112A1B4B196C038E1A2C124D186D3E
:1010B000128F18AF1AD110F21B13113419551B7768
:1010C00009981A3812591879129B1ABB18DC12FEAB
:1010D0001921114219631B8500261A4510661A87CB
:1010E00012A818C81ACA12EB190B132D194D1B6F31
:1010F0000190182F12511871129318B31AD512F6C5
:10110000191613381B581979039B1839105B1A7C70
:10111000109D1ABE1AE211031B2413451B65198684
:101120000A28184712691889108B1AAC18CD10EFCD
:101130001B1013311B51197203941A3210531A7475
:10114000109518B618D812FA191A133C1B5C197DA1
:1011500002211A3D125E188110A218C318E5130768
:101160001927134919691B8B022C1A4A104B1A6C48
:10117000108D1AAE18CF10F11B1211331B5453559A
:101180004E004D4F4E0054554500574544005448BD
:101190005500465249005341540020202020202071
:1011A00020202020202020202020002F3230004C22
:1011B000554E41523A00FF117EFF1182FF1186FF0A
:0B11C000118AFF118EFF1192FF1196A3
:00000001FF
