:10010B00C0F9A4B0999282F880908883C6A1868E9C
:10006800E4F508C3E50894047480948050F2E4FF32
:10007800EFC3940474809480502675F004E508A4B6
:100088002FF582E435F0F583E582240BF582E583CC
:100098003401F583E493FE74092FF8A6060F80D087
:1000A8007B007A0079097D041200037FE87E031241
:0600B80000EB050880AD1D
:080003008B0D8A0E890F8D1090
:10000B00E4F511E511C39510504EC3E5109511FFA2
:10001B00E49400FEAB0DE50F2FF9E50E3EFA90FFD1
:10002B00FF1200BEFDE4FBEBC39408748094805078
:10003B00237E007480A803088006CEA2E713CE139C
:10004B00D8F8FFEDF582EF558224FF92A1C2A0D222
:0C005B00A00B80D3051180ABC2A2D2A282
:010067002276
:1000EB00E4FDFCC3ED9FEC9E5015E4FBFA0BBB004B
:0F00FB00010AEB647B4A70F50DBD00010C80E437
:01010A0022D2
:0300000002011BDF
:0C011B00787FE4F6D8FD758111020068C1
:1000BE00BB010CE58229F582E5833AF583E02250F7
:1000CE0006E92582F8E622BBFE06E92582F8E22241
:0D00DE00E58229F582E5833AF583E493225B
:00000001FF
