:02014200580063
:100046007F807E25120003120137EF600F12013DFB
:100056008F0B750B407F3112012FC2A02090E87FD5
:10006600147E001201032090DE3090FD7BFF7A01A2
:0900760079421200DEB2A080CE36
:10010300E4FDFCC3ED9FEC9E5015E4FBFA0BBB0032
:0F011300010AEB64714A70F50DBD00010C80E428
:0101220022BA
:10000300C29FD29E53890F438920BE2508BF800516
:10001300758DFD8014BE0908BF6005758DF48009D8
:10002300BE040BBFB008758DE853877F800EE4B51F
:10003300070AEEB44B06758DFD438780D28ED299A5
:03004300D29C222A
:10007F00BE2508BF8005758DFD8014BE0908BF60C1
:10008F0005758DF48009BE040ABFB007758DE8535E
:10009F00877F22E4B5070AEEB44B06758DFD4387C3
:0200AF008022AD
:08012F003099FDC2998F99225D
:0600DE008B088A09890A63
:1000E400E4FEAB08AA09A90A8E827583001200B146
:0E00F400FFFD3395E04D600612012F0E80E4F3
:0101020022DA
:06013700A298E433FF2250
:05013D00C298AF9922F9
:03000000020123D7
:0C012300787FE4F6D8FD75810C020046E0
:1000B100BB010CE58229F582E5833AF583E0225004
:1000C10006E92582F8E622BBFE06E92582F8E2224E
:0D00D100E58229F582E5833AF583E4932268
:00000001FF
